:1000000000308A004E280000FF00030E8301A1008B
:100010007F08A0000A08A7008A01A00E0408A20019
:100020007708A3007808A4007908A5007A08A6003C
:10003000831383128C308400801E20288C1A312870
:10004000220884002308F7002408F8002508F90096
:100050002608FA0027088A00210E8300FF0E7F0E73
:10006000090083168C1283128C1E34281A084D3C0A
:10007000031D44288C1E3A281A084D3C03193A28BF
:100080008C1E40281A08A8000230A90083168C167E
:10009000C03083128B048C128A11202803081F3968
:1000A0008300CF3083169900A230980090308312DD
:1000B0009800A90107309F00831390010030F800D9
:1000C0009200003083169200F030831297050030C2
:1000D0008316850002308600850183128501831610
:1000E00006128312061683168C16C03083128B04F8
:1000F0002908013C031894282808413C031D88283E
:100100008316851183128515831605118312051137
:100110002808423C031D94288316051183120515F7
:0C0120008316851183128511732863007B
:02400E004A3F27
:00000001FF
;PIC16F628A
;CRC=5153  CREATED="13-Ara-20 13:41"
