:1000000000308A00652800008316861500308312B0
:1000100086190130F8000800A3012308043C031CE2
:10002000172855300C1E12289900A30A0D28A40188
:100030002408043C031C222800300C1E1D289900B3
:10004000A40A1828A5012508043C031C2D285530B6
:100050000C1E28289900A50A2328A6012608043C7E
:10006000031C38284D300C1E33289900A60A2E2870
:1000700008008316061083120614080053300C1E65
:100080003F289900080023308400831300080319D7
:1000900057280530F800F701F70B4C28F80B4B28D0
:1000A0002E30F700F70B52285528800B49280800FE
:1000B000831606108312061008008316851500307B
:1000C000831285190130F800080003081F398300E6
:1000D000CF3083169900A230980090308312980098
:1000E000A001A10107309F008313831686018312AC
:1000F000860183168501831285010030F800920085
:10010000003083169200F030831297050230831678
:10011000860008308500831204207808A200A20817
:100120000319A328200822020319A3282208A000EB
:100130000C2039203E2041300C1E9C289900643050
:10014000A300432058205D207808A200A2080319CC
:10015000BA28210822020319BA282208A1000C207B
:1001600039203E2042300C1EB32899006430A30091
:10017000432058200420F8080319A1095D20F8083D
:080180000319A0098C2863009B
:02400E004A3F27
:00000001FF
;PIC16F628A
;CRC=726D  CREATED="13-Ara-20 13:48"
