:100000000C9469000C94A8070C9481070C9491003F
:100010000C9491000C9491000C9491000C9491001C
:100020000C9491000C9491000C9491000C94CF07C7
:100030000C9491000C9491000C9491000C949100FC
:100040000C9437070C9491000C9405070C94DF0670
:100050000C9491000C9491000C9491000C949100DC
:100060000C9491000C9491000000010008004000E5
:1000700000010004050D00000000230026002900F7
:1000800000000000240027002A00000000002500D6
:1000900028002B00040404040404040402020202E5
:1000A000020203030303030301020408102040803B
:1000B00001020408102001020408102000000008BA
:1000C000000201000003040700000000000000001F
:1000D0001D0911241FBECFEFD8E0DEBFCDBF11E058
:1000E000A0E0B1E0E0EDFAE102C005900D92AC387D
:1000F000B107D9F723E0ACE8B1E001C01D92AD3300
:10010000B207E1F710E0C9E6D0E004C02197FE0194
:100110000E94690BC836D107C9F70E9499090C944F
:10012000660D0C940000AF92BF92CF92DF92EF92D7
:10013000FF920F931F93CF93DF936C017B018B0191
:10014000040F151FEB015E01AE18BF08C017D107E1
:1001500059F06991D601ED91FC910190F081E02D6B
:10016000C6010995892B79F7C501DF91CF911F91C0
:100170000F91FF90EF90DF90CF90BF90AF900895D8
:10018000FC01538D448D252F30E0842F90E0821B9D
:10019000930B541710F0CF96089501970895FC0122
:1001A000918D828D981761F0A28DAE0FBF2FB11D7A
:1001B0005D968C91928D9F5F9F73928F90E00895D2
:1001C0008FEF9FEF0895FC01918D828D981731F08C
:1001D000828DE80FF11D858D90E008958FEF9FEFE0
:1001E0000895FC01918D228D892F90E0805C9F4FB6
:1001F000821B91098F739927089588E991E00E94E5
:10020000F10021E0892B09F420E0822F089580E09D
:1002100090E0892B29F00E94FD0081110C940000D0
:100220000895FC01A48DA80FB92FB11DA35ABF4F8B
:100230002C91848D90E001968F739927848FA689E5
:10024000B7892C93A089B1898C91837080648C9339
:10025000938D848D981306C00288F389E02D8081E8
:100260008F7D80830895EF92FF920F931F93CF931A
:10027000DF93EC0181E0888F9B8D8C8D98131AC0E1
:10028000E889F989808185FF15C09FB7F894EE89C8
:10029000FF896083E889F989808183708064808325
:1002A0009FBF81E090E0DF91CF911F910F91FF9070
:1002B000EF900895F62E0B8D10E00F5F1F4F0F7318
:1002C0001127E02E8C8D8E110CC00FB607FCFACFD3
:1002D000E889F989808185FFF5CFCE010E9411015F
:1002E000F1CFEB8DEC0FFD2FF11DE35AFF4FF082A4
:1002F0009FB7F8940B8FEA89FB8980818062CFCF0A
:10030000CF93DF93EC01888D8823B9F0AA89BB894C
:10031000E889F9898C9185FD03C0808186FD0DC037
:100320000FB607FCF7CF8C9185FFF2CF808185FF58
:10033000EDCFCE010E941101E9CFDF91CF91089559
:10034000833081F028F4813099F08230A9F008954B
:100350008730A9F08830C9F08430B1F480918000F2
:100360008F7D03C0809180008F77809380000895F7
:1003700084B58F7784BD089584B58F7DFBCF809140
:10038000B0008F778093B00008958091B0008F7D8A
:10039000F9CF1F93CF93DF93282F30E0F901E45476
:1003A000FF4F8491F901E855FF4FD491F901EC56C4
:1003B000FF4FC491CC23A9F0162F81110E94A001F8
:1003C000EC2FF0E0EE0FFF1FE657FF4FA591B49121
:1003D0008FB7F894EC91111108C0D095DE23DC930F
:1003E0008FBFDF91CF911F910895DE2BF8CFCF9370
:1003F000DF9390E0FC01E855FF4F24918C569F4F0E
:10040000FC0184918823D1F090E0880F991FFC01B2
:10041000E058FF4FA591B491FC01E657FF4FC591FD
:10042000D49161110EC09FB7F8948C91E22FE095A2
:100430008E238C932881E223E8839FBFDF91CF91A5
:1004400008958FB7F894EC91E22BEC938FBFF6CF21
:1004500008958CE30895CF93DF93FC0122813381CB
:100460002230310569F0EC01638D818D0E94C90154
:1004700060E0888D0E94C90182E090E09B838A83BE
:10048000DF91CF91089581E008959FB7F89480910E
:100490008C01882319F0815080938C0180918C010C
:1004A000811103C08CB58F7B8CBD9FBF0895CF9306
:1004B000FC01268137812115310509F46AC02130FC
:1004C000310509F462C02230310509F460C02330DF
:1004D000310509F05EC02CE09CB5937F922B9CBD4A
:1004E00084819581019709F056C08CB580628CBDDE
:1004F0008281938101978430910508F04FC08E5E10
:100500009E4FFC0190818CB58C7F292F2370822B0C
:100510008CBD8DB592FB992790F98E7F892B8DBD6F
:10052000CFB7F89480918C01811127C0EEE9F0E0FB
:100530008491E2EBF0E09491E82FF0E0EE0FFF1FE2
:10054000E058FF4FA591B491EC91E92321F461E0CB
:100550008AE00E94C90161E08AE00E94F7018CB53F
:1005600080618CBD8CB580648CBD61E08DE00E94A3
:10057000F70161E08BE00E94F70180918C018F5FB1
:1005800080938C01CFBFCF91089524E0A5CF28E0C0
:10059000A3CF20E0A1CF8CB58F7DA9CF91E0B3CFC1
:1005A0008CB58F778CBD08958CB580688CBD08950F
:1005B0006EBD00000DB407FEFDCF8EB50895FC01A1
:1005C000738362830895FC01778366830895FC0139
:1005D000758364830895089580E00895FC01818502
:1005E0000895FC0180850895FC0187810895FC0130
:1005F000868108954095FC0125854223642B6587FB
:100600000895FC0164870895FC0163870895FC0147
:1006100062870895FC0164830895FC016583089551
:10062000CF92DF92EF92FF920F931F932FB7F89420
:10063000C0909401D0909501E0909601F0909701C0
:100640002FBFAB0170E060E0EFB7F8940091940128
:10065000109195012091960130919701EFBF0C19EF
:100660001D092E093F09041715072607370770F4DF
:10067000FC01228133812330310531F381E01F9168
:100680000F91FF90EF90DF90CF90089580E0F7CF2B
:10069000FC012281338123303105D1F381E00895BB
:1006A0008F929F92AF92BF92CF92DF92EF92FF9282
:1006B000CF93DF93EC018FB7F894809094019090E2
:1006C0009501A0909601B09097018FBF6B01F12C1E
:1006D000E12C2FB7F8948091940190919501A0910D
:1006E0009601B09197012FBF88199909AA09BB09F2
:1006F0008C159D05AE05BF05A0F4E881F981028047
:10070000F381E02DCE010995882319F3DF91CF9174
:10071000FF90EF90DF90CF90BF90AF909F908F9021
:10072000089580E0F3CFCF93DF93EC01E881F98166
:100730000280F381E02DCE0109958823B9F3DF9182
:10074000CF910895862720E1829FB001112486274A
:10075000482F50E0292F382FCA0164E095958795DE
:100760006A95E1F728273927CA0173E0880F991F96
:100770007A95E1F78227932708957F928F929F922F
:10078000AF92BF92CF92DF92EF92FF920F931F939F
:10079000CF93DF934D3308F025C1042F5B01EC01AB
:1007A0007C0125E7E20EF11C17E0140FE881F981C6
:1007B0000484F585E02D0995612F8FEF9FEF0E944E
:1007C000A203E12FF0E064E0F595E7956A95E1F783
:1007D000EA5EFE4F2081F7012083DE01AA58BF4F59
:1007E0001F70E12FF0E0EA5EFE4F20812C931A8506
:1007F000612F0E94A203DE01A958BF4FE12FF0E054
:1008000074E0F595E7957A95E1F7EA5EFE4F208171
:100810002C9311961F70E12FF0E0EA5EFE4F2081CD
:100820002C931B85612F0E94A203DE01A758BF4FA6
:10083000E12FF0E024E0F595E7952A95E1F7EA5EEF
:10084000FE4F20812C9311961F70E12FF0E0EA5E9D
:10085000FE4F20812C931C85612F0E94A203DE0194
:10086000A558BF4FE12FF0E034E0F595E7953A95B4
:10087000E1F7EA5EFE4F20812C9311961F70E12F65
:10088000F0E0EA5EFE4F20812C931D85612F0E94CF
:10089000A203DE01A358BF4FE12FF0E044E0F5953D
:1008A000E7954A95E1F7EA5EFE4F20812C93119679
:1008B0001F70E12FF0E0EA5EFE4F20812C9365016E
:1008C000470110E0A00EB11EF2E08F0E911CCA1479
:1008D000DB04E9F0F60171906F01672D0E94A2031D
:1008E000E72DF0E054E0F595E7955A95E1F7EA5EDB
:1008F000FE4F2081F4012087F6013197E081EF70EF
:10090000F0E0EA5EFE4F2081F4012187DDCF9801FF
:100910002B5F3F4F220F331F80959095D701A20F79
:10092000B31FFC0154E0F695E7955A95E1F7EF7097
:10093000FF27EA5EFE4F30813C93F801EE0FFF1F68
:10094000BF016E0D7F1DAC014F7055274A5E5E4F93
:10095000FA013081FB0133870A5F1F4F000F111F1F
:100960000E0D1F1DFC01EF2FFF27E295EF70EA5ED1
:10097000FE4F3081F8013083E92FFF27EF70FF270A
:10098000EA5EFE4F808113968C93FE01E550FF4F87
:10099000245F20838A819B81039789F0E159F109C3
:1009A000108231961082319610826B8D81E068271B
:1009B000898D0E94C90183E090E09B838A83D09354
:1009C0008E01C0938D0181E0DF91CF911F910F9136
:1009D000FF90EF90DF90CF90BF90AF909F908F905F
:1009E0007F90089580E0F0CFEF92FF921F93CF9316
:1009F000DF93FC01228133812330310509F452C099
:100A0000EC0182819381049761F0638D818D0E9456
:100A1000C90160E0888D0E94C90184E090E09B8359
:100A20008A838C8D8823E9F010E08FEF9FEF7E01A1
:100A3000F9E6EF0EF11CF7012081121740F4FE01D8
:100A4000E10FF11D65A10E94A2031F5FF4CF883B57
:100A5000904F71F08F8598890196988B8F871D8EA6
:100A60001C8E8D8DDF91CF911F91FF90EF90089597
:100A70008EA18E838FA18F8388A5888789A589877A
:100A80008D81811107C09E818C81981719F08E810C
:100A90008F3F31F789899A8901969A8B898B81E0FA
:100AA0008D8FDECF80E0DECFFC0101900020E9F7E2
:100AB0003197AF01481B590BBC0188E991E00C94B8
:100AC00093008F929F92AF92BF920F931F93CF93F9
:100AD000DF93CDB7DEB7A1970FB6F894DEBF0FBE98
:100AE000CDBF19A2423008F44AE08E010F5D1F4FBE
:100AF000842E912CB12CA12CA50194010E94470BAE
:100B0000E62FB901CA01EA30F4F4E05DD801EE93B2
:100B10008D01232B242B252B79F790E080E0109773
:100B200019F0CD010E945405A1960FB6F894DEBFCE
:100B30000FBECDBFDF91CF911F910F91BF90AF90AE
:100B40009F908F900895E95CE1CFCF93DF930E944F
:100B50005405EC0188E791E00E9454058C0F9D1F1D
:100B6000DF91CF910895CF93DF93EC018881998134
:100B7000009711F00E940B0C198218821D821C82B2
:100B80001B821A82DF91CF9108950E94510D0F931D
:100B90001F93CF93DF93EC0188819981009759F0DF
:100BA0002A813B812617370730F081E0DF91CF9112
:100BB0001F910F9108958B016F5F7F4F0E94940CDE
:100BC000009759F0998388831B830A832C813D8188
:100BD000232B59F7FC011082E8CF80E0E7CFEF929A
:100BE000FF920F931F93CF93DF93EC017B018A0158
:100BF000BA010E94C70581110BC0CE010E94B30546
:100C0000CE01DF91CF911F910F91FF90EF9008954A
:100C10001D830C83B701888199810E945F0DF0CFFD
:100C2000DF92EF92FF920F931F93CF93DF93EC012C
:100C30007B018A01E881F9810280F381E02D099529
:100C4000D82E8823D1F0E114F104B1F0011511057B
:100C500099F0FE01E759FF4F80818750F80190819C
:100C6000891708F48083F801408150E0BE01665D79
:100C70007F4FC7010E94560D1D8E8D2DDF91CF91A4
:100C80001F910F91FF90EF90DF9008954F925F9228
:100C90006F927F92AF92BF92CF92DF92EF92FF92CC
:100CA0001F93CF93DF9300D0CDB7DEB77C01909335
:100CB0008E0180938D0161E0FC01808D0E94F7011F
:100CC00060E0F70187890E94F70161E0F701818DFB
:100CD0000E94F701C7010E942B02F701C588D68840
:100CE000C114D10409F444C0F12CE12C83E0CC0CF4
:100CF000DD1CEE1CFF1C8A95D1F79AE6A92E90E028
:100D0000B92E11E0412C24E2522E24EF622E712CD8
:100D100042E050E0B501CE0101960E94070B298107
:100D20003A8150E040E0C301B2010E94470BCA0182
:100D3000B901A70196010E94470BDA01C901029788
:100D4000A109B1098D3F9F4FA105B10510F11F5FAA
:100D500062E0A60EB11C1730D9F6223031054105EC
:100D6000510530F02115310581E04807510598F013
:100D700081E00F900F90DF91CF911F91FF90EF9046
:100D8000DF90CF90BF90AF907F906F905F904F902B
:100D90000895163069F31092800088E080938100F6
:100DA00080918100182B109381003093890020934B
:100DB000880080916F00826080936F00D9CF1F926E
:100DC0000F920FB60F9211242F933F934F935F937F
:100DD0006F937F938F939F93AF93BF93EF93FF9303
:100DE00088E991E00E941101FF91EF91BF91AF91CD
:100DF0009F918F917F916F915F914F913F912F9133
:100E00000F900FBE0F901F9018951F920F920FB664
:100E10000F9211242F938F939F93EF93FF93E09161
:100E2000A801F091A9018081E091AE01F091AF019C
:100E300082FD1BC090818091B1018F5F8F732091E3
:100E4000B201821741F0E091B101F0E0E856FE4FA7
:100E5000958F8093B101FF91EF919F918F912F9189
:100E60000F900FBE0F901F9018958081F4CF1F92A6
:100E70000F920FB60F9211242F933F938F939F934E
:100E8000AF93BF938091940190919501A0919601A9
:100E9000B09197013091930123E0230F2D3758F53E
:100EA0000196A11DB11D209393018093940190930D
:100EB0009501A0939601B093970180918F01909135
:100EC0009001A0919101B09192010196A11DB11DD7
:100ED00080938F0190939001A0939101B093920120
:100EE000BF91AF919F918F913F912F910F900FBE26
:100EF0000F901F90189526E8230F0296A11DB11D93
:100F0000D2CF1F920F920FB60F9211242F933F93BF
:100F10004F935F936F937F938F939F93AF93BF9301
:100F2000EF93FF93E0910201F09103010995FF9186
:100F3000EF91BF91AF919F918F917F916F915F9151
:100F40004F913F912F910F900FBE0F901F901895CA
:100F50001F920F920FB60F9211242F933F934F932E
:100F60005F936F937F938F939F93AF93BF93EF9311
:100F7000FF93E0910001F09101010995FF91EF913C
:100F8000BF91AF919F918F917F916F915F914F91A1
:100F90003F912F910F900FBE0F901F9018951F92A9
:100FA0000F920FB60F921124CF92DF92EF92FF9221
:100FB0000F931F932F933F934F935F936F937F9361
:100FC0008F939F93AF93BF93CF93DF93EF93FF9351
:100FD000C0918D01D0918E018A819B81049709F087
:100FE000E1C02F8930E0F901E454FF4F8491F90109
:100FF000E855FF4F0491F901EC56FF4F149111236E
:1010000079F081110E94A001E12FF0E0EE0FFF1FA7
:10101000EA58FF4FA591B491EC910E2381E009F4B9
:1010200080E081702A8D982F9227821719F08F8D7A
:101030008F5F8F8F8E8D8917F1F188A12DE180351B
:1010400008F42BE088A1820F88A39E8F88A1803AA4
:1010500008F46DC08AA19BA1969587959BA38AA34E
:101060008F8D853028F08AA19BA198609BA38AA3CD
:1010700088A1805A88A31F8E89A1882309F486C07D
:101080008CA18F5F8CA38C3008F451C08AA19BA1E6
:10109000982F9F73892F86958695887028E0280F52
:1010A000281769F0E82FF0E0EA5EFE4F30819317D1
:1010B00039F08F5FF5CF88A18C5E88A3C7CF80E021
:1010C00090E1899F900111248AA19BA136E0969519
:1010D00087953A95E1F7482F95958795959587954A
:1010E000887098E0980F891749F0E82FF0E0EA5EE1
:1010F000FE4F5081451719F08F5FF5CF80E0822BAE
:10110000DE01A759BF4F9C91AE0148595F4F911125
:1011100027C0FA0180839081973018F09081943431
:10112000F8F019A28F8598890196988B8F87FF9187
:10113000EF91DF91CF91BF91AF919F918F917F916F
:101140006F915F914F913F912F911F910F91FF9060
:10115000EF90DF90CF900F900FBE0F901F901895DB
:101160002C9191E0920F9C932C0F3D2F311DF90192
:1011700085A39C91DA018C91981730F019A281E037
:101180008C8FCE010E942B021CA2D1CF8AA19BA1E1
:1011900088339B4061F681E089A31CA2C759DF4FC9
:1011A0001882C5CF8A819B81039709F68E01045965
:1011B0001F4FF801808191E0980F9083811113C037
:1011C0006E01FAE6CF0ED11CD601EC91AF56BF4F9F
:1011D0008C91E81778F0CE010E942B028B899C89B4
:1011E00001969C8B8B8BD8018C91883008F49FCF13
:1011F0001C929DCFEC0FFD2FF11DE359FF4F608135
:1012000070E07E01BBE6EB0EF11CF701808191E0FE
:10121000980F908302C0759567958A95E2F7617083
:10122000888D0E94C901D7018C918630E0F21C9212
:10123000F60180818F5F8083D6CFCF93DF93CDB7C8
:10124000DEB728970FB6F894DEBF0FBECDBFE8E932
:10125000F1E01382128288EE93E0A0E0B0E0848394
:101260009583A683B7838AE291E09183808385EC9E
:1012700090E09587848784EC90E09787868780EC60
:1012800090E0918B808B81EC90E0938B828B82EC51
:1012900090E0958B848B86EC90E0978B868B118EFB
:1012A000128E138E148EE5E3F2E013821282158201
:1012B0001482178216828CE391E091838083EDE3A0
:1012C000F2E0138212828FEF8483828783871486F1
:1012D0001586108A1786128A118A148A138A80E565
:1012E00091E09183808388EB9BE0968B858B83E0F4
:1012F000878B84E0808F8AE0818F138E88E0EAE01C
:10130000F1E0DE01119601900D928A95E1F788E0F7
:10131000FE013196AAEAB2E001900D928A95E1F7BA
:1013200028960FB6F894DEBF0FBECDBFDF91CF91E8
:101330000895CF93DF93CDB7DEB7CB54D1090FB665
:10134000F894DEBF0FBECDBF789484B5826084BDB3
:1013500084B5816084BD85B5826085BD85B58160B9
:1013600085BD80916E00816080936E001092810037
:1013700080918100826080938100809181008160F2
:1013800080938100809180008160809380008091B3
:10139000B10084608093B1008091B000816080933F
:1013A000B00080917A00846080937A0080917A0006
:1013B000826080937A0080917A00816080937A00C5
:1013C00080917A00806880937A001092C100E09149
:1013D000A801F091A90182E08083E091A401F0913D
:1013E000A5011082E091A601F091A7018FEC808306
:1013F0001092B001E091AC01F091AD0186E08083E4
:10140000E091AA01F091AB01808180618083E0913D
:10141000AA01F091AB01808188608083E091AA01EC
:10142000F091AB01808180688083E091AA01F09106
:10143000AB0180818F7D80838DE392E00E94460620
:10144000811104C08BE791E00E94A5058CE3B82EC2
:101450008E010F5F1F4F2C96BFAE2C97AE01455BE0
:101460005F4FB8018DE392E00E941006882309F4D3
:10147000C1C02C96EFAC2C9787E891E00E94A5059F
:101480006801F12CEF14D9F0F60161916F0170E061
:1014900090E080E02F2D2F7040E12F3041F40E942A
:1014A000610588E791E00E945405F394EBCF0E9418
:1014B000610560E288E991E00E943301F6CF8AE796
:1014C00091E00E94A50525961FAE1EAE2597279692
:1014D0001FAE1EAE279729961FAE1EAE299750E06D
:1014E00040E06AE771E0CE018D5B9F4F0E94EF05FF
:1014F000680125966EAD7FAD25972C962FAD2C9764
:10150000C601801B910B2817190609F00CF45EC068
:10151000F601F1906F011EAE1DAE21961FAE1EAEFC
:10152000219723961FAE1EAE23976115710541F0DA
:1015300029964EAD5FAD2997CE01CD960E94EF055D
:101540002A96FFAE2A972B961FAE2B972396EEACCA
:10155000FFAC2397FFEFEF1AFF0AB701CE01CD963C
:101560000E94C705882339F12DAD3EAD23968EAD7F
:101570009FAD2397BE01675B7F4F820F931F0E9431
:101580005F0D2396FFAEEEAE23976DAD7EAD611578
:101590007105B1F023964EAD5FAD2397CE018D5B03
:1015A0009F4F0E94EF058DAD9EAD009709F4A1CF2E
:1015B0000E940B0C9ECFCE01CD960E94B305E5CFC5
:1015C000CE018D5B9F4F0E94B305EDCF29964EADA6
:1015D0005FAD299788E991E00E94930088E791E048
:1015E0000E94540525968EAD9FAD2597009711F06A
:1015F0000E940B0C80E090E0892B09F42CCF0E9414
:10160000FD00882309F422CF0E9400001FCFFB01B8
:10161000DC0102C005900D9241505040D8F708956A
:101620002F923F924F925F926F927F928F929F92F2
:10163000AF92BF92CF92DF92EF92FF920F931F93E0
:10164000CF93DF93CDB7DEB7CA1BDB0B0FB6F89491
:10165000DEBF0FBECDBF09942A88398848885F84D1
:101660006E847D848C849B84AA84B984C884DF8042
:10167000EE80FD800C811B81AA81B981CE0FD11D26
:101680000FB6F894DEBF0FBECDBFED010895A1E205
:101690001A2EAA1BBB1BFD010DC0AA1FBB1FEE1FEC
:1016A000FF1FA217B307E407F50720F0A21BB30B37
:1016B000E40BF50B661F771F881F991F1A9469F7B3
:1016C00060957095809590959B01AC01BD01CF010F
:1016D0000895EE0FFF1F0590F491E02D09940F93EC
:1016E0001F93CF93DF938230910510F482E090E056
:1016F000E0913B03F0913C0330E020E0B0E0A0E05B
:10170000309799F42115310509F44AC0281B390B8B
:1017100024303105D8F58A819B816115710589F1E5
:10172000FB0193838283FE0111C0408151810281BC
:10173000138148175907E0F04817590799F4109793
:1017400061F012960C93129713961C933296CF0168
:10175000DF91CF911F910F91089500933B03109358
:101760003C03F4CF2115310551F04217530738F0EF
:10177000A901DB019A01BD01DF01F801C1CFEF0131
:10178000F9CF90933C0380933B03CDCFFE01E20F52
:10179000F31F819391932250310939832883D7CF46
:1017A0002091390330913A03232B41F42091060113
:1017B0003091070130933A032093390320910401BB
:1017C000309105012115310541F42DB73EB7409107
:1017D000080150910901241B350BE0913903F09168
:1017E0003A03E217F307A0F42E1B3F0B2817390723
:1017F00078F0AC014E5F5F4F2417350748F04E0F6D
:101800005F1F50933A0340933903819391939FCF85
:10181000F0E0E0E09CCFCF93DF930097E9F0FC018C
:10182000329713821282A0913B03B0913C03ED01E9
:1018300030E020E01097A1F420813181820F931FC6
:101840002091390330913A032817390709F061C014
:10185000F0933A03E0933903DF91CF910895EA01C1
:10186000CE17DF07E8F54A815B819E0141155105DE
:10187000B1F7E901FB83EA8349915991C40FD51F60
:10188000EC17FD0761F4808191810296840F951F0A
:10189000E90199838883828193819B838A83F0E025
:1018A000E0E012968D919C9113970097B9F52D91D8
:1018B0003C911197CD010296820F931F209139031D
:1018C00030913A032817390739F6309751F51092BD
:1018D0003C0310923B03B0933A03A0933903BCCF6F
:1018E000D383C28340815181840F951FC817D907C4
:1018F00061F44E5F5F4F88819981480F591F518372
:1019000040838A819B81938382832115310509F06D
:10191000B0CFF0933C03E0933B039ECFFD01DC018D
:10192000C0CF13821282D7CFB0E0A0E0EAE9FCE09A
:101930000C94120B8C01009751F4CB010E946F0B99
:101940008C01C801CDB7DEB7E0E10C942E0BFC0191
:10195000E60FF71F9C0122503109E217F30708F444
:101960009DC0D901CD91DC911197C617D70798F08A
:10197000C530D10530F3CE0104978617970708F3D9
:10198000C61BD70B2297C193D1936D937C93CF0144
:101990000E940B0CD6CF5B01AC1ABD0A4C018C0E19
:1019A0009D1EA0913B03B0913C03512C412CF12C86
:1019B000E12C109731F58091390390913A03881505
:1019C000990509F05CC04616570608F058C080918A
:1019D000040190910501009741F48DB79EB74091A5
:1019E000080150910901841B950BE817F90708F0CD
:1019F00055C0F0933A03E0933903F9017183608392
:101A0000A0CF8D919C91119712966C90129713967E
:101A10007C901397A815B90559F56C0142E0C40EE6
:101A2000D11CCA14DB0420F1AC014A195B09DA01AC
:101A30001296159780F06282738251834083D90198
:101A40006D937C93E114F10471F0D7011396FC932C
:101A5000EE93129776CF22968C0F9D1FF9019183FA
:101A60008083F301EFCFF0933C03E0933B0369CF16
:101A70004816590608F42C017D01D3019ACFCB01F9
:101A80000E946F0B7C01009749F0AE01B8010E94E3
:101A9000560DC8010E940B0C870153CF10E000E0E7
:101AA00050CF81E090E0F8940C94660DFB01DC01CE
:101AB00002C001900D9241505040D8F70895FB01AB
:101AC000DC0101900D920020E1F70895F894FFCF1A
:101AD0002802280200003D0380002A2A2A2A2A2AF6
:101AE000382C050004040D0E131516191A1C232595
:101AF00026292A2C32340000000033019300C00054
:101B00008001F100CF00E30000000000D802D40201
:101B1000D00257024502E702E302DF0200000000A4
:101B20004606F4041006BD0329029303480310037C
:101B300050030A03070304030103FA020D03F7022B
:101B4000F402F102EE02EC020D0A00696E697420E3
:0C1B50006661696C656400476F743A00C0
:00000001FF
