:100000000C9463000C948B000C948B000C948B006C
:100010000C948B000C948B000C948B000C948B0034
:100020000C948B000C948B000C948B000C948B0024
:100030000C948B000C948B000C948B000C948B0014
:100040000C949B030C948B000C9469030C94430355
:100050000C948B000C948B000C948B000C948B00F4
:100060000C948B000C948B000000000023002600F1
:10007000290000000008000201000003040700003E
:1000800000000000000000000000250028002B00F8
:1000900000000000240027002A00040404040404D3
:1000A0000404020202020202030303030303010227
:1000B00004081020408001020408102001020408F6
:1000C0001020E503BD0511241FBECFEFD8E0DEBF31
:1000D000CDBF21E0ACE3B1E001C01D92AC3EB20760
:1000E000E1F711E0A0E0B1E0EEE2F0E102C005903E
:1000F0000D92AC33B107D9F710E0C2E6D0E004C0EE
:100100002197FE010E940906C136D107C9F70E9456
:1001100020040C940A080C94000090E0FC01E255C5
:10012000FF4F249186569F4FFC018491882399F0BC
:1001300090E0880F991FFC01E057FF4FA591B49103
:10014000FC01EA57FF4F859194918FB7F894EC9199
:10015000E22BEC938FBF0895AF92BF92CF92DF92C4
:10016000EF92FF920F931F93CF93DF936C017B016C
:100170008B01040F151FEB015E01AE18BF08C017FD
:10018000D10759F06991D601ED91FC910190F08170
:10019000E02DC6010995892B79F7C501DF91CF9133
:1001A0001F910F91FF90EF90DF90CF90BF90AF9095
:1001B0000895FC01538D448D252F30E0842F90E06D
:1001C000821B930B541710F0CF9608950197089552
:1001D000FC01918D828D981761F0A28DAE0FBF2F1B
:1001E000B11D5D968C91928D9F5F9F73928F90E071
:1001F00008958FEF9FEF08952FB7F89480914101F4
:1002000090914201A0914301B09144012FBF80938E
:100210004D0190934E01A0934F01B093500185E49E
:1002200091E00E94E80097FF26C02FB7F8948091D4
:10023000410190914201A0914301B09144012FBF2F
:1002400040914D0150914E0160914F0170915001CC
:10025000841B950BA60BB70B4091490150914A01A5
:1002600060914B0170914C0184179507A607B70761
:10027000B0F28FEF9FEF0895FC01918D828D98175A
:1002800031F0828DE80FF11D858D90E008958FEF9C
:100290009FEF0895FC01918D228D892F90E0805C65
:1002A0009F4F821B91098F739927089585E491E0F0
:1002B0000E944A0121E0892B09F420E0822F089551
:1002C00080E090E0892B29F00E94560181110C9466
:1002D00000000895FC01A48DA80FB92FB11DA35AE9
:1002E000BF4F2C91848D90E001968F739927848F56
:1002F000A689B7892C93A089B1898C918370806479
:100300008C93938D848D981306C00288F389E02D19
:1003100080818F7D80830895EF92FF920F931F93CA
:10032000CF93DF93EC0181E0888F9B8D8C8D9813A8
:100330001AC0E889F989808185FF15C09FB7F894B4
:10034000EE89FF896083E889F98980818370806400
:1003500080839FBF81E090E0DF91CF911F910F914B
:10036000FF90EF900895F62E0B8D10E00F5F1F4F5A
:100370000F731127E02E8C8D8E110CC00FB607FC69
:10038000FACFE889F989808185FFF5CFCE010E94F7
:100390006A01F1CFEB8DEC0FFD2FF11DE35AFF4FFA
:1003A000F0829FB7F8940B8FEA89FB898081806285
:1003B000CFCFCF93DF93EC01888D8823B9F0AA8942
:1003C000BB89E889F9898C9185FD03C0808186FD10
:1003D0000DC00FB607FCF7CF8C9185FFF2CF80815F
:1003E00085FFEDCFCE010E946A01E9CFDF91CF9169
:1003F0000895833081F028F4813099F08230A9F09B
:1004000008958730A9F08830C9F08430B1F4809124
:1004100080008F7D03C0809180008F778093800063
:10042000089584B58F7784BD089584B58F7DFBCF03
:100430008091B0008F778093B00008958091B000D4
:100440008F7DF9CFCF93DF93282F30E0F901EE585D
:10045000FF4F8491F901E255FF4FD491F901E6561F
:10046000FF4FC491CC23A1F081110E94F901EC2F20
:10047000F0E0EE0FFF1FE859FF4FA591B491EC910A
:10048000ED2381E090E009F480E0DF91CF910895C1
:1004900080E090E0FACF1F93CF93DF93282F30E0D6
:1004A000F901EE58FF4F8491F901E255FF4FD491C5
:1004B000F901E656FF4FC491CC23A9F0162F811104
:1004C0000E94F901EC2FF0E0EE0FFF1FEA57FF4FFB
:1004D000A591B4918FB7F894EC91111108C0D09503
:1004E000DE23DC938FBFDF91CF911F910895DE2B28
:1004F000F8CF3FB7F89480913D0190913E01A091D3
:100500003F01B091400126B5A89B05C02F3F19F0CF
:100510000196A11DB11D3FBFBA2FA92F982F882783
:10052000BC01CD01620F711D811D911D42E0660F5E
:10053000771F881F991F4A95D1F708958F929F9230
:10054000AF92BF92CF92DF92EF92FF920E94790218
:100550004B015C0184E6C82ED12CE12CF12C0E94C9
:100560007902681979098A099B09683E73408105F7
:100570009105A8F321E0C21AD108E108F10888EE3C
:10058000880E83E0981EA11CB11CC114D104E104A3
:10059000F10429F7FF90EF90DF90CF90BF90AF90DC
:1005A0009F908F900895CF93DF93FC0101900020DE
:1005B000E9F73197AF01481B590BBC0185E491E085
:1005C0000E94AC00EC0142E050E068E171E085E49B
:1005D00091E00E94AC008C0F9D1FDF91CF91089598
:1005E0000F931F93CF93DF93EC018881998100973C
:1005F00059F02A813B812617370730F081E0DF91DF
:10060000CF911F910F9108958B016F5F7F4F0E94D3
:100610003407009759F0998388831B830A832C81C0
:100620003D81232B59F7FC011082E8CF80E0E7CF12
:10063000EF92FF920F931F93CF93DF93EC017B0117
:100640008A01BA010E94F00228813981811114C007
:100650002115310519F0C9010E94AB0619821882D3
:100660001D821C821B821A82CE01DF91CF911F91C5
:100670000F91FF90EF9008951D830C83B701C9017E
:100680000E940308F1CF1F920F920FB60F92112410
:100690002F933F934F935F936F937F938F939F938A
:1006A000AF93BF93EF93FF9385E491E00E946A01BB
:1006B000FF91EF91BF91AF919F918F917F916F913A
:1006C0005F914F913F912F910F900FBE0F901F9010
:1006D00018951F920F920FB60F9211242F938F939C
:1006E0009F93EF93FF93E0915501F0915601808124
:1006F000E0915B01F0915C0182FD1BC090818091D3
:100700005E018F5F8F7320915F01821741F0E0914E
:100710005E01F0E0EB5BFE4F958F80935E01FF91F1
:10072000EF919F918F912F910F900FBE0F901F907F
:1007300018958081F4CF1F920F920FB60F9211245B
:100740002F933F938F939F93AF93BF9380914101DA
:1007500090914201A0914301B091440130913C013C
:1007600023E0230F2D3758F50196A11DB11D2093CD
:100770003C018093410190934201A0934301B093C7
:10078000440180913D0190913E01A0913F01B091C3
:1007900040010196A11DB11D80933D0190933E0142
:1007A000A0933F01B0934001BF91AF919F918F9172
:1007B0003F912F910F900FBE0F901F90189526E834
:1007C000230F0296A11DB11DD2CFE5E4F1E0138203
:1007D000128288EE93E0A0E0B0E084839583A68344
:1007E000B7838AE091E09183808385EC90E09587E0
:1007F000848784EC90E09787868780EC90E0918BEB
:10080000808B81EC90E0938B828B82EC90E0958BD7
:10081000848B86EC90E0978B868B118E128E138ED4
:10082000148EE2EEF1E011821082138212821582A0
:10083000148250E040E06AE171E0CF010C941803AB
:10084000CF93DF93CDB7DEB728970FB6F894DEBF0E
:100850000FBECDBF789484B5826084BD84B58160BD
:1008600084BD85B5826085BD85B5816085BD80917B
:100870006E00816080936E001092810080918100F3
:1008800082608093810080918100816080938100EB
:10089000809180008160809380008091B1008460AD
:1008A0008093B1008091B00081608093B00080910E
:1008B0007A00846080937A0080917A0082608093CD
:1008C0007A0080917A00816080937A0080917A002A
:1008D000806880937A001092C100E0915501F091F8
:1008E000560182E08083E0915101F0915201108223
:1008F000E0915301F09154018FEC808310925D01DF
:10090000E0915901F0915A0186E08083E09157010E
:10091000F0915801808180618083E0915701F091CE
:100920005801808188608083E0915701F0915801DF
:10093000808180688083E0915701F0915801808127
:100940008F7D808388E00E948D008CE00E948D0066
:100950008EE00E948D008FE00E948D0080E0A82E26
:1009600080E0B82E8EE00E942202892B31F08BE1CC
:1009700091E00E94D3020E949E028FE00E94220218
:10098000892B31F08BE291E00E94D3020E949E02FB
:100990001A8219821C821B821E821D8250E040E056
:1009A0006AE171E0CE0101960E9418030E94FC00EA
:1009B0000D811E8197FD19C08F8318860F5F1F4F11
:1009C000B801CE0101960E94F002882379F32981B3
:1009D0003A818D819E81BE01695F7F4F820F931F97
:1009E0000E9403081E830D83E1CFC980DA80C11401
:1009F000D10421F076010115110521F5ED80FE806D
:100A00008091E6019091E701E816F90609F072C0BD
:100A100009811A816091E2017091E30101151105CC
:100A200009F446C06115710509F05EC0EF2809F4AC
:100A300049C0F801808181115FC0C8010E94AB06E6
:100A400047C0740147018FEF881A980AF701808127
:100A5000082E000C990B0E94C605892B91F70150B6
:100A600011090C0D1D1DF8018081082E000C990B39
:100A70000E94C605892B31F00E151F0518F0015094
:100A80001109F1CFA8014F5F5F4F4E195F095E83D7
:100A90004D83CE14DF0420F4B701C6010E94F10794
:100AA000E981FA818D819E81E80FF91F1082A6CF1E
:100AB0006115710539F0E114F10421F0FB01808129
:100AC000811118C009811A810115110509F0B5CFEE
:100AD000A114B10409F446CF0E945601882309F4F9
:100AE00041CF0E9400003ECFC8010E94FA07892B27
:100AF00009F4A3CFEF2881F06BE171E089819A813D
:100B00000E94FA07892B41F461E08CE00E944B02BD
:100B100060E088E00E944B028D819E81892B81F0EC
:100B20006BE271E089819A810E94FA07892B41F476
:100B300061E088E00E944B0260E08CE00E944B0282
:100B40006091E2017091E3016115710549F04091F6
:100B5000E6015091E701CE0101960E941803B2CF41
:100B600089819A81009711F00E94AB061A8219823E
:100B70001E821D821C821B82A5CF8091E201909172
:100B8000E301009711F00C94AB06089591110C94B9
:100B9000CF05803219F089508550C8F708959927FC
:100BA000882708952F923F924F925F926F927F9283
:100BB0008F929F92AF92BF92CF92DF92EF92FF926D
:100BC0000F931F93CF93DF93CDB7DEB7CA1BDB0B19
:100BD0000FB6F894DEBF0FBECDBF09942A883988BE
:100BE00048885F846E847D848C849B84AA84B984C5
:100BF000C884DF80EE80FD800C811B81AA81B981D1
:100C0000CE0FD11D0FB6F894DEBF0FBECDBFED01E4
:100C10000895EE0FFF1F0590F491E02D09940F93B6
:100C20001F93CF93DF938230910510F482E090E020
:100C3000E091EA01F091EB0130E020E0B0E0A0E0CB
:100C4000309799F42115310509F44AC0281B390B56
:100C500024303105D8F58A819B816115710589F1B0
:100C6000FB0193838283FE0111C040815181028187
:100C7000138148175907E0F04817590799F410975E
:100C800061F012960C93129713961C933296CF0133
:100C9000DF91CF911F910F9108950093EA01109376
:100CA000EB01F4CF2115310551F04217530738F00D
:100CB000A901DB019A01BD01DF01F801C1CFEF01FC
:100CC000F9CF9093EB018093EA01CDCFFE01E20FC3
:100CD000F31F819391932250310939832883D7CF11
:100CE0002091E8013091E901232B41F42091020188
:100CF000309103013093E9012093E8012091000134
:100D0000309101012115310541F42DB73EB74091D5
:100D1000040150910501241B350BE091E801F0918D
:100D2000E901E217F307A0F42E1B3F0B2817390740
:100D300078F0AC014E5F5F4F2417350748F04E0F37
:100D40005F1F5093E9014093E801819391939FCFF6
:100D5000F0E0E0E09CCFCF93DF930097E9F0FC0157
:100D6000329713821282A091EA01B091EB01ED015A
:100D700030E020E01097A1F420813181820F931F91
:100D80002091E8013091E9012817390709F061C085
:100D9000F093E901E093E801DF91CF910895EA0132
:100DA000CE17DF07E8F54A815B819E0141155105A9
:100DB000B1F7E901FB83EA8349915991C40FD51F2B
:100DC000EC17FD0761F4808191810296840F951FD5
:100DD000E90199838883828193819B838A83F0E0F0
:100DE000E0E012968D919C9113970097B9F52D91A3
:100DF0003C911197CD010296820F931F2091E8013B
:100E00003091E9012817390739F6309751F51092DA
:100E1000EB011092EA01B093E901A093E801BCCF85
:100E2000D383C28340815181840F951FC817D9078E
:100E300061F44E5F5F4F88819981480F591F51833C
:100E400040838A819B81938382832115310509F038
:100E5000B0CFF093EB01E093EA019ECFFD01DC01FE
:100E6000C0CF13821282D7CFB0E0A0E0EAE3F7E070
:100E70000C94D4058C01009751F4CB010E940F060D
:100E80008C01C801CDB7DEB7E0E10C94F005FC01A0
:100E9000E60FF71F9C0122503109E217F30708F40F
:100EA0009DC0D901CD91DC911197C617D70798F055
:100EB000C530D10530F3CE0104978617970708F3A4
:100EC000C61BD70B2297C193D1936D937C93CF010F
:100ED0000E94AB06D6CF5B01AC1ABD0A4C018C0E4A
:100EE0009D1EA091EA01B091EB01512C412CF12CF7
:100EF000E12C109731F58091E8019091E901881576
:100F0000990509F05CC04616570608F058C0809154
:100F1000000190910101009741F48DB79EB7409177
:100F2000040150910501841B950BE817F90708F09F
:100F300055C0F093E901E093E801F9017183608302
:100F4000A0CF8D919C91119712966C901297139649
:100F50007C901397A815B90559F56C0142E0C40EB1
:100F6000D11CCA14DB0420F1AC014A195B09DA0177
:100F70001296159780F06282738251834083D90163
:100F80006D937C93E114F10471F0D7011396FC93F7
:100F9000EE93129776CF22968C0F9D1FF9019183C5
:100FA0008083F301EFCFF093EB01E093EA0169CF87
:100FB0004816590608F42C017D01D3019ACFCB01C4
:100FC0000E940F067C01009749F0AE01B8010E9413
:100FD000F107C8010E94AB06870153CF10E000E083
:100FE00050CFFB01DC0102C001900D9241505040F6
:100FF000D8F70895FB01DC018D9101908019011053
:10100000D9F3990B0895FB01DC0101900D920020AA
:10101000E1F7089510E0C2E6D0E004C0FE010E94AE
:0E10200009062196C336D107C9F7F894FFCF11
:10102E000000EC018000000000008C01AC00D90033
:10103E00D9014A01E8003C010D0A00627574746F13
:10104E006E4F6E6549734849474800627574746FF8
:0C105E006E54776F497348494748000002
:00000001FF
